:020000040800F2
:10000000307C00209109000821D801086503000810
:10001000DD040008E7040008F10400080000000007
:100020000000000000000000000000002BD80108C4
:100030002DD8010800000000730900089D09000880
:1000400033D8010833D8010833D8010833D8010860
:1000500033D8010833D8010833D8010833D8010850
:1000600033D8010833D8010833D8010833D8010840
:1000700033D8010833D8010833D8010833D8010830
:1000800033D8010833D8010833D8010833D8010820
:1000900033D8010833D8010833D8010833D8010810
:1000A00033D8010833D8010833D8010833D8010800
:1000B00033D8010833D8010833D8010833D80108F0
:1000C00033D8010833D8010833D8010833D80108E0
:1000D00033D8010833D8010833D8010833D80108D0
:1000E00033D8010833D8010833D8010833D80108C0
:1000F00033D8010833D8010833D8010833D80108B0
:1001000033D8010833D8010833D8010833D801089F
:1001100033D8010833D8010833D8010833D801088F
:1001200033D8010833D8010833D8010833D801087F
:1001300000F002F800F068F80AA090E8000C824491
:100140008344AAF10107DA4501D100F05DF8AFF26E
:10015000090EBAE80F0013F0010F18BFFB1A43F0A5
:10016000010318472C7704004C7704000A444FF031
:10017000000C10F8013B13F0070408BF10F8014B06
:100180001D1108BF10F8015B641E05D010F8016B4B
:10019000641E01F8016BF9D113F0080F1EBF10F8AF
:1001A000014BAD1C0C1B09D16D1E58BF01F801CBD2
:1001B000FAD505E014F8016B01F8016B6D1EF9D555
:1001C0009142D6D37047000000230024002500266A
:1001D000103A28BF78C1FBD8520728BF30C148BFAA
:1001E0000B6070476F2925F0F986002070471FB516
:1001F00026F0BCF904000020002126F0E3FE401C9C
:1002000060601FBD10B510BD26F0B8F91146FFF7AC
:10021000EEFF07F016FD26F0D6F903B4FFF7F2FF64
:1002200003BC26F0D7F9000070B56423C74890FBE3
:10023000F3F1481EB0F1807F00D31BE0481E4FF061
:10024000E022506150170F22002807DA1407260E0B
:10025000BF4C00F00F052D1F665503E01407250E57
:10026000BC4C255400BF00204FF0E02290610720D5
:10027000106100BF012070BD70470246002002B12E
:1002800001B97047D2F8880000BF001F4FF080739B
:10029000036000BF00BF001F016000BF00BF001F60
:1002A0004FF0FF33036000BF00BF001F4FF0123359
:1002B000036000BF00BF001F4FF00333036000BFA7
:1002C00000BF001F4FF00233036000BF00BF001FDC
:1002D0005B10036000BF00BF001F026000BF00BFD3
:1002E000001F4FF01133036000BF00BF001F4FF02D
:1002F0001033036000BF00BF001F4FF009330360DD
:1003000000BF00BF001F4FF00833036000BF00BFF5
:10031000001F4FF00733036000BF00BF001F4FF006
:100320000633036000BF00BF001F4FF005330360BA
:1003300000BF00BF001F4FF00433036000BF5065D3
:1003400000BF9EE770477047704701460020704726
:1003500070470146002070470146002070477047F3
:100360007047704788B000BFEFF3088004467A48B2
:100370004068456D79A000F061FC7EA000F05EFC55
:1003800083A000F05BFC7449496801F5D27000F06D
:1003900055FC7EA000F052FC81A000F04FFC6E489E
:1003A0004068C06D012802D182A000F047FC6A4875
:1003B0004068C06D022802D181A000F03FFC664871
:1003C0004068C06D062802D180A000F037FC62486A
:1003D000406881A1426D684607F0B1F8684600F0B8
:1003E0002DFC22467FA1684607F0A9F8684600F078
:1003F00025FC04CD7EA1684607F0A1F8684600F010
:100400001DFC04CD7DA1684607F099F8684600F010
:1004100015FC04CD7CA1684607F091F8684600F011
:100420000DFC7CA168462A6807F089F8684600F050
:1004300005FC7BA000F002FC22466AA1684607F09A
:100440007EF8684600F0FAFB04CC7DA1684607F010
:1004500076F8684600F0F2FB04CC7CA1684607F011
:100460006EF8684600F0EAFB04CC7BA1684607F012
:1004700066F8684600F0E2FB04CC7AA1684607F013
:100480005EF8684600F0DAFB04CC79A1684607F014
:1004900056F8684600F0D2FB04CC78A1684607F015
:1004A0004EF8684600F0CAFB04CC77A1684607F016
:1004B00046F8684600F0C2FB04CC76A1684607F017
:1004C0003EF8684600F0BAFB75A16846226807F05E
:1004D00036F8684600F0B2FB00BFFEE702E073A00A
:1004E00000F0ACFBFBE702E076A000F0A7FBFBE727
:1004F00002E07AA000F0A2FBFBE730B591B0044621
:100500000D46D4F88800A8420BD82B4679A101A843
:10051000D4F8882007F013F801A800F08FFB00BF83
:10052000FEE7D4E92110401AA84204D37CA000F0D1
:1005300085FB00BFFEE7D4F88800401BB0F5C06F14
:1005400002D381A000F07AFB11B030BD00A24A04B2
:1005500018ED00E000E400E0081500200D0A4861F5
:1005600072644661756C745F48616E646C65720D8F
:100570000A00000020202D2D2D2D20546872656169
:100580006420496E666F202D2D2D2D200D0A000050
:100590002020546872656164206E616D653A2000A8
:1005A0002020546872656164205374617475733AD5
:1005B000200000002052554E4E494E472E0D0A0095
:1005C0002052454144592E0D0A00000020424C4F54
:1005D000434B45442E0D0A00455350203D202558DD
:1005E0000D0A00004D5350203D2025580D0A0000F3
:1005F00078505352203D2025580D0A005043203D8D
:100600002025580D0A0000004C52203D2025580D91
:100610000A000000523132203D2025580D0A00000A
:1006200020202D2D2D2D20457863657074696F6E07
:1006300020496E666F202D2D2D2D200D0A00000003
:100640004431203D2025580D0A0000004432203D51
:100650002025580D0A0000004433203D2025580D68
:100660000A0000004434203D2025580D0A000000F7
:100670004435203D2025580D0A0000004436203D19
:100680002025580D0A0000004437203D2025580D34
:100690000A0000004438203D2025580D0A000000C3
:1006A0004439203D2025580D0A0000000D0A4D65F3
:1006B0006D4D616E6167655F48616E646C65720D5A
:1006C0000A0000000D0A4275734661756C745F483C
:1006D000616E646C65720D0A000000000D0A5573AE
:1006E0006167654661756C745F48616E646C6572C4
:1006F0000D0A00004661756C74206572726F723A63
:1007000020496E6974537461636B507472203D208C
:1007100025582C455350203D2025582E0D0A000009
:100720002020434845434B20455350204552524FCB
:10073000522C626F74746F6D206F766572666C6F89
:10074000772E0D0A000000002020434845434B202F
:10075000455350205741524E494E473A746872658E
:10076000616420686173206C65737320312F3420BD
:10077000627974657320737461636B2E0D0A0000D7
:1007800070B505460C463DA007F007F814B12046A9
:1007900007F003F870BD70B505460C463DA006F0A5
:1007A000FCFF14B1204606F0F8FF70BD70B5054699
:1007B0000C463FA006F0F1FF14B1204606F0EDFF15
:1007C00070BD70B505460C4640A006F0E6FF14B1BA
:1007D000204606F0E2FF70BD70B505460C4641A00C
:1007E00006F0DBFF14B1204606F0D7FF70BD70B5F0
:1007F00006460C461546042E14D004DC012E07D004
:10080000022E1ED109E0082E11D0102E19D113E0AE
:1008100029462046FFF7B4FF14E029462046FFF79B
:10082000BAFF0FE029462046FFF7C0FF0AE029463D
:100830002046FFF7C6FF05E029462046FFF7CCFF1C
:1008400000E000BF00BF70BD0EB505460C462BA0F2
:1008500006F0A3FF2EA01CF0FDFE28461CF0FAFEB9
:100860006946204606F044FF2CA006F096FF684635
:100870001CF0F0FE00F063F800BFFEE74572726FF7
:1008800072204C6576656C203A20464154414C28D4
:10089000312900004572726F72204C6576656C20BC
:1008A0003A20435249544943414C28322900000020
:1008B0004572726F72204C6576656C203A20494D06
:1008C000504F5254414E5428332900004572726FE4
:1008D00072204C6576656C203A20414C41524D287F
:1008E000342900004572726F72204C6576656C2069
:1008F0003A20494E464F524D28352900425547204F
:100900006F656E636F756E74657265642E000000AE
:1009100046696C65206E616D653A20004C696E65B4
:10092000733A20001F484FF0FF0101707047EFF34A
:10093000058000F0FF00EFF308811B4A1047EFF33A
:10094000108072B6704780F31088704762B67047A7
:1009500072B6704730B4154C4FF08055256030BCEE
:10096000704700BF30B4114C4FF08055256030BC4B
:1009700070472DE9F00F7446EFF30880EFF308811C
:100980000B4A9047A64680F30888BDE8F00F7047F1
:10099000084880470848804708488047084A104769
:1009A000FEE7000022ED00E05D6C000804ED00E0D1
:1009B000B53C0008A10A000825090008310100081B
:1009C0002F0900080CB50020019000906B480068CA
:1009D00040F480306949086000BF6848006800F44E
:1009E000003000900198401C0190009818B90198BF
:1009F000B0F5A06FF1D16148006810F4003F02D05B
:100A00000120009001E0002000900098012842D1D0
:100A10005B48006840F010005949086008460068CB
:100A200020F0030008600846006840F002000860FB
:100A30005248406851494860084640684860084646
:100A4000406840F4806048600846406820F47C10AC
:100A500048600846406840F4E8104860084600686E
:100A600040F08070086000BF4448006810F0007FCC
:100A7000FAD04248406820F00300404948600846E8
:100A8000406840F00200486000BF3C48406800F009
:100A90000C000828F9D10CBD10B5FFF793FF10BD6D
:100AA00010B53648006840F0010034490860084637
:100AB0004068344908403149486008460068324976
:100AC00008402E4908600846006820F4802008602D
:100AD0000846406820F4FE0048604FF41F0088601C
:100AE000FFF7DAFF4FF000602849086010BD10B52D
:100AF000002100200022214B5B6803F00C0121B192
:100B0000042906D0082928D107E0214B214C236075
:100B100027E01F4B1F4C236023E0184B5B6803F456
:100B20007010164B5B6803F48032022303EB904095
:100B300022B9194B4343174C23600DE00F4B5B6800
:100B400013F4003F04D0144B4343124C236003E0E2
:100B50000F4B43430F4C236003E00D4B0D4C2360C0
:100B600000BF00BF054B5B68C3F303130B4CE15C94
:100B7000084B1B68CB40074C236010BD001002409F
:100B8000002002400000FFF8FFFFF6FE08ED00E045
:100B900000127A000000002000093D00040000203F
:100BA00001468A8942F040028A81704701468A895B
:100BB00022F040028A810A8822F040020A807047AF
:100BC00001460A46108810F0400F01D001207047FE
:100BD0000020FCE701460A46108810F0800F01D083
:100BE000012070470020FCE70A46C0F30803938009
:100BF000704701460A46108810F0200F01D00120EE
:100C000070470020FCE701460A46108810F0200FCC
:100C100001D0012070470020FCE701460A46908879
:100C2000C0B2704700BFF749098811F0800FFAD0B1
:100C3000C0F30801F34A121D1180704700B5034646
:100C400003E01878FFF7EEFF5B1C18780028F8D156
:100C500000BDF0B5024600251146EA4882426FD138
:100C6000E948806940F00100E74CA061E74840682E
:100C700020F00400E54C6060E348806940F0040027
:100C8000E14CA061E248006820F47F60E04C206005
:100C90002046006840F0B00020602046006840F424
:100CA00080602060D848806940F48040D64CA061C4
:100CB0002C208881888920F480708881888920F0A0
:100CC00080008881888920F040008881888920F010
:100CD00010008881888940F02000888100200882E7
:100CE000888240F271200881002301E000BF5B1C74
:100CF000B3F5805FFADB888940F4005088812520B5
:100D00000F24002809DA26074FEA166CC14E00F0BE
:100D10000F073F1F06F807C003E02607370EBE4E39
:100D2000375400BF252000F01F060124B4404609B7
:100D30004FF0E02707EB8606C6F8004100BF01250B
:100D4000B648824200D10125B548824200D1012532
:100D50002846F0BD2DE9F04106460C461746D4F86A
:100D6000505115B90020BDE8F081AE48E968D0F8CF
:100D700038229047AC482146D0F8242290470020E2
:100D8000F1E770B504460025E5691DB96068FFF715
:100D90000DFF70BD606AA84206D06562286CA06332
:100DA00000206063E86BE0632DE0606BE16B8842DC
:100DB0000DD10220616A8862E069406CE061E069FF
:100DC00008B900202062606A016D88470BE0A26BC1
:100DD00010786168FFF708FFA06B401CA063606B90
:100DE000401C60630FE0E5692DB900206062606817
:100DF000FFF7DCFECDE76562286CA063002060632E
:100E0000E86BE06300BF6068FFF7E4FE0028CCD128
:100E100000BFBEE770B50446FFF791FD064621E02E
:100E20006068FFF7FAFE054640F28460015904F15C
:100E30004000455440F284600059401C40F28461F7
:100E4000085108460059B0F5C86F03D1002140F29F
:100E5000846001514FF4D0600159001D0059814256
:100E600000D104E06068FFF7CEFE0028D8D100BFB3
:100E700002E06068FFF7D1FE6068FFF7C4FE00285B
:100E8000F7D105E06069016D88476069406C606179
:100E900060690028F6D1A0613046FFF754FD70BDAF
:100EA00070B506460C4625466868FFF789FE20B1F6
:100EB0002846FFF766FF012070BD6868FFF799FEBE
:100EC00020B12846FFF7A6FF0120F5E70020F3E751
:100ED0002DE9F05F83468846154600270024A24688
:100EE0000026A86A10B9E86A012800D078E0B8F1B5
:100EF000000F00D174E0D8F8504104B970E0D5F883
:100F000038A000BFFFF71BFD81461CE04FF4D06006
:100F1000015904F14000405C0AF807007F1C4FF4BF
:100F2000D0600059401C4FF4D06108510846005968
:100F3000B0F5C86F03D100214FF4D0600151686B48
:100F4000B84200D806E04FF4D0600159001D0059A6
:100F50008142DBD100BF1FB14846FFF7F4FC3FE000
:100F6000A06920B96561A5610020686404E0A069FA
:100F7000456400206864A5614846FFF7E4FC284604
:100F8000E96C8847012802D0022827D100E0B9E7A0
:100F9000FFF7D5FC8146666906B918E0B54206D16F
:100FA000706C6061706C88B90020A0610EE009E08F
:100FB000706CA84205D1686C7064706C00B9A66151
:100FC00003E0766C706C0028F2D100BF00BF0120F6
:100FD000A86200274846FFF7B6FC00BF00BF00BF6D
:100FE0003846BDE8F09F70B504460D462046FFF731
:100FF000F1FD28B121462846FFF7F6FD012070BD1E
:101000000020FCE7003801400010024000000140D1
:101010000408014018ED00E000E400E00044004056
:10102000004800403C1A00204410002010B5024641
:101030000B460020002102B103B910BDD06900B9F0
:10104000FBE7984206D1446CD461446C0CB900248F
:101050001462F2E7416C03E001B9EEE70846496C1F
:101060009942F9D14C6C44644C6C04B9106200BFD5
:10107000E3E72DE9F04781460E4614460027002598
:10108000A846A06A10B9E06A022800D048E006B974
:1010900046E0D6F8505105B942E0FFF750FC8046D3
:1010A000286AD0B9EC612C62002060646868FFF7A0
:1010B00077FD6C62206CA86300206863E06BE863D6
:1010C000AA6B11786868FFF78EFF58B1A86B401CB7
:1010D000A863686B401C686304E0286A44642C625F
:1010E000002060644046FFF72EFC2046E16C8847F4
:1010F000012802D0022810D101E0E76B0EE0A06ABF
:10110000022801D1E76B07E021462846FFF78EFF52
:101110000120A062002701E000E000BF00BF00BF87
:101120003846BDE8F0872DE9F04780460C469146E9
:101130000027002504B912E0D4F8505105B90EE09B
:10114000FFF7FDFB0646286920B92869401C286185
:10115000274600E000273046FFF7F5FB00BF384682
:10116000BDE8F0872DE9F04107460D469046002482
:1011700005B910E0D5F8504104B90CE0FFF7DFFBEA
:1011800006462069012802D12069401E20613046B0
:10119000FFF7D9FB00BF0020BDE8F081F0B587B0B4
:1011A00005460027002451E0D1206043414901EB6E
:1011B000C0004FF480610091CDE902050191D1207A
:1011C00060433C4A52F830103B4801230022D0F8DB
:1011D00020C2E04705A941F8240005A850F82400E2
:1011E00018B936A0FFF72AFD3EE0002001900290DA
:1011F000039004900090D12060432E4901EBC00081
:10120000037AD120604301EBC0023B483B49D0F850
:1012100034C2E047D1216143264A02EBC101C860D4
:10122000D1206043114601EBC000C06818B934A05A
:10123000FFF704FD18E0D12161431E4A02EBC10112
:101240004868FFF706FD00B90EE0641C022CABDB1A
:101250003B48A8643B48E8623B48A8623B48E863D7
:101260003B482864012700BF07BB00261CE005A8F7
:1012700050F8260030B105A850F826100E48D0F8D6
:1012800024229047D12070430A4901EBC000C06876
:1012900048B1D12070430B4603EBC000C16816482B
:1012A000D0F838229047761CA642E0DD384607B0D9
:1012B000F0BD00001400002044100020555341529E
:1012C00054204472697665723A204661696C65649F
:1012D00020746F206372656174652064657669634C
:1012E00065206F626A65637420666F722055534192
:1012F00052542E0D0A0000003C1A0020A10E0008D6
:101300005553415254204472697665723A204661C1
:10131000696C656420746F20636F6E6E6563742002
:10132000696E7465727275707420666F72206120C8
:101330005553415254206465766963652E0D0A0049
:10134000550D000873100008D10E00082711000881
:101350006511000800BFE449098811F0800FFAD038
:10136000C0F30801E04A121D118070470020DF49D8
:10137000896941F00101DD4A9161DD49496821F047
:101380000401DB4A5160D949896941F00401D74A17
:101390009161D849096821F47F61D64A11601146EC
:1013A000096841F0B00111601146096841F480619B
:1013B0001160CE49896941F48041CC4A91612C2168
:1013C000C94A0C3211801146098821F480711180BC
:1013D0001146098821F0800111801146098821F009
:1013E000400111801146098821F020011180114629
:1013F000098821F0100111800021121D1180121D99
:10140000118040F27121B84A0832118000BF01E01A
:1014100000BF401CB0F5805FFADBB3490C3109888E
:1014200041F40051B04A0C321180704710B50446A7
:10143000B148406820B9FFF799FF0120AE494860E4
:101440002046FFF787FF10BD7CB50546AA48006817
:1014500008B900207CBD0FE0A749C86B804704464F
:10146000B4F1FF3F08D00120ADF800000194A3487B
:101470000022694683689847EEE77FB50446002559
:1014800014B9002004B070BD002000909C480023D7
:101490001A469CA1D0F8E061B04705460DB900207E
:1014A000F0E72561012020605020A060FF20E0606F
:1014B00097A00021984BCDE90031CDE90210974863
:1014C0000C230222D0F88460B0476061606940B9A3
:1014D0008B482169D0F8EC219047002020612060E2
:1014E000D0E70120CEE710B5044604B910BD20694D
:1014F00020B183482169D0F8EC219047606920B180
:1015000086486169D0F8882090470020206000BF9D
:10151000ECE72DE9FC41054600200190804890F859
:101520000C0218B97E4890F80D0270B9284606F0F2
:1015300066FA0190002403E0285DFFF777FF641C42
:1015400001988442F8D3BDE8FC816B48006800B97B
:10155000F9E7284606F053FA074601A800906648C6
:10156000016967482B463A46D0F8E861B04700BFAA
:10157000E9E76B4890F80C0218B9694890F80D0239
:1015800000B970475C48006800B9FAE700BFF8E7A7
:101590003EB5044600200290E0B20190604890F809
:1015A0000C0218B95E4890F80D0220B99DF80400AD
:1015B000FFF73CFF3EBD5048006800B9FAE702A8BB
:1015C00000904D4801694E4801AB0122D0F8E85126
:1015D000A84700BFEEE73EB5002002900D20019025
:1015E0004F4890F80C0218B94D4890F80D0220B9F8
:1015F0009DF80400FFF71AFF3EBD3F48006800B9A0
:10160000FAE702A800903C4801693D4801AB01227D
:10161000D0F8E841A04700BFEEE73EB500200290B9
:101620000A2001903E4890F80C0218B93C4890F806
:101630000D0220B99DF80400FFF7F8FE3EBD2E48CC
:10164000006800B9FAE702A800902B4801692C480D
:1016500001AB0122D0F8E841A04700BFEEE73EB55C
:1016600000200290082001902D4890F80C0220B133
:101670009DF80400FFF7DAFE3EBD1F48006800B980
:10168000FAE702A800901C4801691D4801AB01223D
:10169000D0F8E841A04700BFEEE710B50446FFF7D9
:1016A0009AFFFFF7BAFF2046FFF733FF10BD1CB5C6
:1016B000002001901048006810B94FF0FF301CBDA9
:1016C000002000900C4801690D4801AB0122D0F8C0
:1016D000E441A04710B94FF0FF30F0E79DF8040057
:1016E000EDE74FF0FF307047003801400010024036
:1016F0000000014004080140240D00202C100020AF
:10170000441000205C5C2E5C555341525431000063
:10171000434F4E5F52440000491400080815002052
:101720003C1A002070B50446002500260CB90020A4
:1017300070BD0121142002F068F805460DB90020A3
:10174000F6E70120A8600020A8814FF6FF71E9812B
:1017500000214FF422700151C4F88052001F05513E
:1017600004F52070286068604FF42770015104F57B
:101770002570C4F894024FF426710851002614E035
:10178000002006EB860104EBC101486206EB8601EE
:1017900004EBC101486006EB860104EBC1018860DF
:1017A00006EB860144F83100761C102EE8D30120A8
:1017B000BEE710B50246002002B101B910BD1068A5
:1017C00005E08489CB899C4200DB02E000689042FE
:1017D000F7D100BF086043684B60436819604160FF
:1017E00000BFEBE770B505460026002405B970BDC3
:1017F0002E6818E03468AC4200D116E0F089401C35
:10180000A18988420DD1D4E900104860D4E90001D3
:101810000860E189F18100220121204602F02DF8C3
:1018200001E0366800BFAE42E4D100BF00BFDEE792
:101830002DE9FE4F80460C4600200290834600258D
:10184000002601900090814682460027B8F1000FE3
:1018500000D014B90298BDE8FE8FA068012801D01D
:101860000298F8E7E089A189401A4FF6FF71884293
:1018700001DB0298EFE70121142001F0C6FF0746C3
:101880000FB90298E7E7E089A189401A401C1FFAC6
:1018900080FBFFF754F80090D8F8805211E0A88937
:1018A000A189884206DCE989E089814202DB0120C6
:1018B00001900AE0E889A989401A584500DB2E46C4
:1018C0002D6808F520708542E9D100BF01980028F5
:1018D00051D0D5E900104860D5E900010860A88919
:1018E000A189884216DA0121142001F08EFF814679
:1018F000B9F1000F0ED00120C9F80800A889A9F895
:101900000C00A089401EA9F80E00494608F5207079
:10191000FFF74FFFE989E089814216DD012114209C
:1019200001F073FF8246BAF1000F0ED00120CAF811
:101930000800E089401CAAF80C00E989AAF80E10FA
:10194000514608F52070FFF734FF0120B860A089E8
:10195000B881E189F981394608F52570FFF729FF3B
:101960000098FEF7F0FF0120029000220121284696
:1019700001F083FF45E0E6B3D6E900104860D6E900
:1019800000010860F089B189401A80B2584516DD1F
:101990000121142001F039FF8146B9F1000F0ED06A
:1019A0000120C9F80800B0895844A9F80C00F18951
:1019B000A9F80E10494608F52070FFF7FAFE01203D
:1019C000B860B089B881B0895844401EF881394662
:1019D00008F52570FFF7EDFEB889A081F989E1814E
:1019E0000098FEF7B0FF012002900022012130464E
:1019F00000E002E001F041FF03E00098FEF7A3FFE2
:101A000000BF029830B900220121384601F035FFAD
:101A1000029820E702981EE72DE9F04105460E46A0
:101A20000024002705B10EB9BDE8F081B068012897
:101A300000D0F9E7FEF783FF0746D5F8944209E0A6
:101A4000A089B189884204D1E189F089814200D11D
:101A500004E0246805F525708442F1D100BF05F546
:101A60002570844203D13846FEF76DFFDCE7D4E9E8
:101A700000104860D4E900010860214605F5207097
:101A8000FFF797FE05F52070FFF7ACFE3846FEF72E
:101A90005AFF00BFC8E72DE9F04105460C46002675
:101AA000002705B114B90020BDE8F081A068012825
:101AB00001D00020F8E7FEF742FF0746D5F8806224
:101AC0000DE0B089A189884208DCF189E089814272
:101AD00004DB3846FEF737FF0120E5E7366805F5F9
:101AE00020708642EDD13846FEF72DFF0020DBE75F
:101AF00010B50246002302B109B9002010BD1068DC
:101B00000C68A04201D00020F8E7106808B9002056
:101B1000F4E71068012802D002282BD122E0D488F3
:101B2000C888844201D143F00103148908898442A2
:101B300001D143F00203D068040AC868B4EB102F47
:101B400001D143F00403147C087C844201D143F0AA
:101B50000803107918401479A04201D10120CDE783
:101B60000020CBE750684C68A04201D10120C5E7B6
:101B70000020C3E700BF00BF0020BFE72DE9F0470A
:101B80000546884691461F460024A246002615B108
:101B9000B9F1000F02D10020BDE8F087002F2CD151
:101BA000FEF7CDFE8246002420E004EB840005EB26
:101BB000C000406A404500D017E004EB840005EB0C
:101BC000C00046680EE031464846FFF791FF38B145
:101BD0005046FEF7B8FE27A005F0DFFD3046DBE7F4
:101BE000D6F8C060002EEED100BF641C102CDCD3F0
:101BF0005046FEF7A8FE3046CEE7D7F8C400401B9B
:101C00002821B0FBF1F4D7F8C060FEF798FE8246B9
:101C100022E00BE031464846FFF76AFF20B150460C
:101C2000FEF791FE3046B7E7D6F8C060002EF1D13E
:101C3000641C0EE004EB840005EBC000406A4045E4
:101C400001D0641C05E004EB840005EBC00046688D
:101C500001E0102CEED300BF102CDAD3002ED8D127
:101C60005046FEF770FE304696E702460020704769
:101C700070470000476574446576696365203A20C3
:101C800052656163682032737420706F7369746980
:101C90006F6E2E0010B503460C46194609B9002098
:101CA00010BD0C604A600120FAE72DE9F0470546B7
:101CB0000F4616462C46B8464FF0000914B1B8F14D
:101CC000000F02D10020BDE8F0873EB13548414603
:101CD000D0F8D020304690470120F4E7FEF72FFEE1
:101CE0008146206810B32068C06D052813D10020FC
:101CF0002060606850B12B496068D1F8D02041461F
:101D000090474846FEF71FFE0120DCE74846FEF7F5
:101D10001AFE0420D7E723492068D1F8D020414695
:101D200090474846FEF70FFE0120CCE7606850B1AF
:101D30001C496068D1F8D020414690474846FEF7DC
:101D400002FE0120BFE74846FEF7FDFD0420BAE78A
:101D50002DE9F04104460E4625460027B84615B940
:101D60003846BDE8F081FEF7EAFD80462F682E6018
:101D70004046FEF7E8FD3846F3E72DE9F04104461A
:101D80000E4625460027B84615B93846BDE8F0810D
:101D9000FEF7D5FD80466F686E604046FEF7D3FDC6
:101DA0003846F3E708150020002100B9704709E024
:101DB000425C612A05DB425C7A2A02DC425C203A02
:101DC0004254491C425C002AF2D100BFEEE72DE9E3
:101DD000F04105460E462F46002406B115B90020F5
:101DE000BDE8F081FEF7ABFD8046002406E007F574
:101DF000E47050F8240000B902E0641C042CF6DB07
:101E000000BF042C04D14046FEF79DFD0020E7E70B
:101E100007F5E47040F824604046FEF794FD012089
:101E2000DEE70146002001B97047012000BFFBE753
:101E30002DE9FF5F80460D4691469A4600200390AB
:101E400083460027CDF80880009000242878612878
:101E500005DB28787A2802DC2878203800E028780A
:101E6000C0B20090F84816220021D0F804339847F9
:101E7000044604B939E02046A169884700B934E036
:101E8000FEF75DFD0190002610E0C6EBC60102984A
:101E9000083010F821100098814206D1C6EBC60127
:101EA0000298083000EB81004768761C102EECDBAE
:101EB0000198FEF748FD07B917E0E449386A8842FF
:101EC00000D012E0D7F840B10020A0620420E06208
:101ED000C4F83C90C4F834A02564224639465846DC
:101EE000DBF83C309847039000BF24B1D648214628
:101EF000D0F810239047039804B0BDE8F09F2DE977
:101F0000F04705460E46904699460024FEF717FD19
:101F100007462C6807E004F12C01304605F045FD2A
:101F200000B902E0A46A002CF5D100BF3846FEF7E4
:101F30000AFD2046BDE8F0872DE9F043ADF5017DAF
:101F400007460C4615469846DDF82092002624B92F
:101F500000200DF5017DBDE8F083204605F0B8FBBB
:101F6000B0F5007F01DB0020F3E7207818B160783E
:101F700008B1A07808B90020EBE701A9204605F0D8
:101F800013FC01A8FFF710FF9DF80400412828DB8F
:101F90009DF804005A2824DC9DF805003A2801D059
:101FA0000020D6E79DF806005C2801D00020D0E78D
:101FB00043462A4601A93846FFF73AFF064676B956
:101FC00015F0004F0BD001A9384600F096FD30B156
:101FD00043462A4601A93846FFF72AFF06463046FF
:101FE000B7E79DF804005C2814D19DF805005C2833
:101FF00010D19DF806002E280CD19DF807005C2812
:1020000001D00020A5E743462A4601A93846FFF73C
:1020100076FF9EE700209CE72DE9FE4F07460D4620
:1020200090469946DDF83CA0002002902E4683465B
:102030000024019007B105B942E08348162200212F
:10204000D0F804339847044604B939E02046A16922
:10205000884700B934E04FF48070E062C4F8308003
:102060000020A062C4F83C900C9820640D98606336
:102070000E98A063FEF763FC00907449306A8842B2
:1020800003D00098FEF75FFC1AE0D6F840B1009844
:10209000FEF759FC224631465846DBF83030984767
:1020A0000190BAF1000F02D00198CAF80000A06AAE
:1020B000012802D10020029001E00120029000BF1F
:1020C00024B161482146D0F8102390470298BDE81A
:1020D000FE8F2DE9F04FADF5017D82460F460025BC
:1020E0000024D046A34617B1B8F1000F04D1002058
:1020F0000DF5017DBDE8F08F6946384605F054FBCB
:102100006846FFF751FE9DF800B0FEF718FC80907E
:10211000002610E0C6EBC60108F1080010F8210007
:10212000584507D1C6EBC60108F1080000EB810055
:10213000456802E0761C102EECDB00BF8098FEF7AD
:1021400002FC0DB90020D3E74049286A884201D03B
:102150000020CDE73C4816220021D0F804339847F0
:10216000044604B917E02046A169884700B912E087
:102170004FF48070E062202020630020A0620420E1
:10218000E063C4F840D0D5F8400122462946036BED
:102190009847814600BF24B12B482146D0F8102330
:1021A0009047B9F1000F01D00120A1E700209FE77F
:1021B0002DE9FC5F80460D4691460026B34600247B
:1021C00000200090C246B8F1000F03D015B1B9F15C
:1021D000000F00D155E01C4816220021D0F804332E
:1021E0009847044604B94CE02046A169884700B9E5
:1021F00047E00020A0624FF48070E062C0002063DE
:10220000A565C4F85C902878612805DB28787A28D1
:1022100002DC2878203800E0287800F0FF0BFEF779
:102220008EFB0190002714E0C7EBC7010AF10800FC
:1022300010F8210058450BD1C7EBC7010AF108007F
:1022400000EB8100466806E02817002055AA55AA31
:102250007F1C102FE8DB00BF0198FEF774FB06B966
:102260000FE0FD49306A884200D00AE0D6F840010C
:1022700022463146036B984700B902E0A06B0090FC
:1022800000BF24B1F5482146D0F8102390470098AC
:10229000BDE8FC9F2DE9FE4F80460D4691469A46CB
:1022A00000260020029000240090C346B8F1000FE1
:1022B00006D02DB1BAF1000F02D0B9F1000F00D154
:1022C00054E0E64816220021D0F80433984704462B
:1022D00004B94BE02046A169884700B946E00020D8
:1022E000A0624FF48070E06200012063A565C4F82D
:1022F0005CA0C4F840902878612805DB28787A280B
:1023000002DC2878203800E02878C0B20290FEF77E
:1023100016FB0190002711E0C7EBC7010BF1080085
:1023200010F821100298814207D1C7EBC7010BF1C9
:10233000080000EB8100466802E07F1C102FEBDBF9
:1023400000BF0198FEF7FFFA06B90FE0C249306AF4
:10235000884200D00AE0D6F8400122463146036B9D
:10236000984700B902E00120009000BF24B1BB48AB
:102370002146D0F8102390470098BDE8FE8F2DE944
:10238000FC5F80460D4691460026B346002400209F
:102390000090C246B8F1000F03D015B1B9F1000F9B
:1023A00000D151E0AD4816220021D0F804339847FF
:1023B000044604B948E02046A169884700B943E0D3
:1023C0000020A0624FF48070E06280002063A56569
:1023D000C4F85C902878612805DB28787A2802DC2C
:1023E0002878203800E0287800F0FF0BFEF7A7FAE5
:1023F0000190002710E0C7EBC7010AF1080010F8B0
:102400002100584507D1C7EBC7010AF1080000EBCE
:102410008100466802E07F1C102FECDB00BF0198B2
:10242000FEF791FA06B90FE08B49306A884200D076
:102430000AE0D6F8400122463146036B984700B9BE
:1024400002E00120009000BF24B184482146D0F86A
:10245000102390470098BDE8FC9F2DE9F84F804677
:102460000D460026B2460024A346C146B8F1000F2F
:1024700000D005B94FE0794816220021D0F8043386
:102480009847044604B946E02046A169884700B948
:1024900041E00020A0624FF48070E0628020206361
:1024A000A5652878612805DB28787A2802DC287859
:1024B000203800E0287800F0FF0AFEF740FA00908C
:1024C000002710E0C7EBC70109F1080010F8210050
:1024D000504507D1C7EBC70109F1080000EB8100A7
:1024E000466802E07F1C102FECDB00BF0098FEF76F
:1024F0002AFA06B90FE05849306A884200D00AE04B
:10250000D6F8400122463146036B984700B902E0F5
:10251000D4F85CB000BF24B150482146D0F8102355
:1025200090475846BDE8F88F0346002070472DE9D4
:10253000F05F0E4617469946DDF828804FF0000AF6
:1025400035460024A34605B117B90020BDE8F09F29
:10255000B8F1010F04D0B8F1020F01D00020F5E767
:102560003D49286A884201D00020EFE7D5F840A114
:102570003A4816220021D0F80433984704460CB993
:102580000020E3E72046A169884730B93348214657
:10259000D0F8102390470020D8E71020E0620020F8
:1025A000A0620420E063C4F84080A765C4F85C9092
:1025B000224629465046DAF838309847834627485D
:1025C0002146D0F810239047BBF1000F01D0012025
:1025D000BCE70020BAE72DE9F04781460E4600240B
:1025E00035460027A04615B90020BDE8F0871A49F6
:1025F000286A884201D00020F7E7D5F840711748D3
:1026000016220021D0F80433984704460CB9002064
:10261000EBE72046A169884730B910482146D0F839
:10262000102390470020E0E72020E0620020A06215
:102630000420E06325642246294638467B6B984790
:10264000804606482146D0F810239047B8F1000F85
:1026500006D00120C9E7000055AA55AA2817002076
:102660000020C2E72DE9FF4F83B081468A4693469A
:102670000024A04600254E46002002900190B9F1AA
:10268000000F04D0BAF1000F01D0139818B9002040
:1026900007B0BDE8F08F504605F01AF8B0F5807F1E
:1026A00001DD0020F4E7BB4815220021D0F80433F7
:1026B000984704460CB90020EAE72046A1698847FC
:1026C00030B9B4482146D0F8102390470020DFE706
:1026D000B14820621298C4F850011398C4F8400120
:1026E000C4F830B10698C4F834011198C4F83C011C
:1026F0001098C4F838010020A062606204F12C0137
:10270000504605F051F81BF0080F00D142E00027B9
:102710003CE006F5E47050F82700A8B306F5E47035
:1027200050F827809C49D8F82000884200D02FE03C
:10273000984816220021D0F804339847054605B979
:1027400028E02846A969884728B992482946D0F840
:10275000102390471EE00020A8624FF48070E862CA
:10276000102028630420E8632C64D8F840012A462E
:102770004146036B9847019086482946D0F81023BC
:102780009047019800B103E0FFE77F1C042FC0DBF6
:1027900000BF00BFFEF7D3F80290306808B934607C
:1027A00006E03068A06200206062306844623460F5
:1027B0000298FEF7C8F820466AE72DE9F041054681
:1027C0000C462E46002705B10CB9BDE8F0817249D0
:1027D000206A884200D0F8E7FEF7B1F80746606A41
:1027E00050B9A06A10B90020306011E00020A16A41
:1027F0004862A06A30600BE0A06A18B90020616AE4
:10280000886205E0D4E909108862D4E909014862C8
:102810003846FEF798F8002020625E482146D0F83E
:102820001023904700BFD0E70346002070470346BF
:102830000020704770B5054600240DB9002070BD1A
:10284000544801220021D0F80433984704460CB9BB
:102850000020F4E72046A169884708B90020EEE788
:102860004E48206460642063A06460634C48E06369
:102870004A48A062A063E0620020606220622046B5
:10288000A84708B10120DAE742482146D0F81023D2
:1028900090470020D3E72DE9FF4F83B0804699464B
:1028A000002002904546DDF810B04FF0430A15B104
:1028B000BBF1000F00D161E0FEF741F80190002468
:1028C00008E0C4EBC40105F1080010F8210000B9CC
:1028D00002E0641C102CF4DB00BF102C03D1019823
:1028E000FEF731F84AE000260CE0C6EBC60105F120
:1028F000080010F82100504503DB0AF1010000F048
:10290000FF0A761C102EF0DBC4EBC40105F10800B1
:1029100000F821A0C4EBC40100EB8100C0F804B0B2
:10292000C4EBC40205F1080101EB8201059888603F
:102930000027002611E019F80600202800D10BE03E
:1029400019F80610C4EBC40205F1080000EB820080
:102950000C30C1557F1C00BF761C0C2EEBDB002118
:10296000C4EBC40205F1080000EB82000C30C15535
:102970000198FDF7E8FF0120029000BF029807B020
:10298000BDE8F08F0246002002B101B9704700BFD8
:10299000FCE700002817002055AA55AA292800089E
:1029A0002F2800082DE9F0410446002500260227C3
:1029B00014B90020BDE8F08125462E6A42F210715C
:1029C0003046B26B90470746012F01D00820A8621D
:1029D0003846EFE770B5044600250CB9002070BDFD
:1029E000256A2846296B88470120F8E7014609B97E
:1029F000002070470120FCE72DE9F0410646002544
:102A00000024002716B90020BDE8F0813446F748BD
:102A10000A220021D0F80433984705460DB900205A
:102A2000F2E72846A969884730B9F0482946D0F826
:102A3000102390470020E7E72562FDF780FF074657
:102A4000EB48406860623846FDF77DFF0020A062D9
:102A5000E06220636063A063E06320646064A0645C
:102A6000AFF2BF00E064AFF293002065AFF28300E5
:102A70006065002020660120C6E770B50446002589
:102A800004B970BD2546286A20B1D848296AD0F813
:102A90001023904700BFF4E70146002209B9002047
:102AA00070470A460020106250620120F8E7704724
:102AB0000146002209B9002070470A4600205062F2
:102AC000906282F82C00C2F84001C2F85001012047
:102AD000F2E77047002100B9704709E0425C612AC3
:102AE00005DB425C7A2A02DC425C203A4254491CF3
:102AF000425C002AF2D100BFEEE72DE9FC5F804680
:102B00000D464FF000090027C246BB4600240020B6
:102B100000902878612805DB28787A2802DC28785C
:102B2000203800E0287800F0FF0BB0481622002182
:102B3000D0F804339847044604B938E02046A16928
:102B4000884700B933E0FDF7FAFE019000260FE058
:102B5000C6EBC6010AF1080010F82100584506D15D
:102B6000C6EBC6010AF1080000EB81004768761C3D
:102B7000102EEDDB0198FDF7E6FE07B917E09D4941
:102B8000386A884200D012E0D7F840910020A06255
:102B90004020E062284604F09BFDE0632564224665
:102BA00039464846D9F844309847009000BF24B1D0
:102BB0008E482146D0F810239047009810B101208C
:102BC000BDE8FC9F0020FBE72DE9FF5F83460D4633
:102BD00090461E4600200390002481460290002764
:102BE000824601900090BBF1000F04D01DB1B8F1F6
:102BF000000F00D01EB9039804B0BDE8F09FA946AD
:102C0000D9F840010290794816220021D0F8043307
:102C10009847044604B92CE02046A169884700B9CA
:102C200027E0C2460020A0620220E062D9F83C7191
:102C30001EE0BA4501D9384600E05046E0632664FC
:102C4000029822464946C36A98470190019800B904
:102C50000FE0DDE9000108440090BA4505D80E995F
:102C6000009808600120039003E0AAEB070A3E44A5
:102C7000DFE724B15D482146D0F810239047039840
:102C8000BAE72DE9FF4F85B08B4617460020049028
:102C90005D46039000240290002681468246019002
:102CA0008046BBF1000F02D00FB1089800B97FE059
:102CB0005049286A884200D07AE0D5F8340100B93A
:102CC00076E04A4816220021D0F80433984704469B
:102CD00004B96DE02046A169884700B968E0D5F8DD
:102CE000400103900898029000BF0120E06200209C
:102CF000A062D5F83801B8420BD8D5F838610298EF
:102D0000A063D5F83811029808440290BF1B66638F
:102D100021E007B931E03E460196D5F83401B6FB13
:102D2000F0F100FB116048B1D5F83401B6FBF0F1C9
:102D300000FB1160D5F83411081A06440121304611
:102D400000F063FD8046B8F1000F00D115E0C4F833
:102D5000388066630027039822462946836A98478D
:102D60008146CA44B14502D2CDF8049005E007B9C6
:102D700003E0D5F83801B042B7D900BFB8F1000F71
:102D800008D04146DDE9012023F0F2F9AAEB090A57
:102D900001988244129810B11298C0F800A0A06A5D
:102DA000012802D10020049001E00120049000BF1E
:102DB00024B10E482146D0F810239047B8F1000FF7
:102DC00004D000220121404600F057FD049809B0CC
:102DD000BDE8F08F2DE9F04107460E460024354648
:102DE000A04607B146B9BDE8F081000028170020D1
:102DF0000815002055AA55AAA549286A884200D07E
:102E0000F1E7D5F84081A34816220021D0F8043319
:102E10009847044604B912E02046A169884700B9E2
:102E20000DE00020A0620820E0620420E063256439
:102E3000224629464046D8F84030984700BF24B182
:102E400094482146D0F81023904700BFCBE72DE9E6
:102E5000F04FADF5017D82460F4600250024D04697
:102E6000A34617B1B8F1000F04D100200DF5017D84
:102E7000BDE8F08F6946384604F096FC6846FFF7D7
:102E800029FE9DF800B0FDF75AFD8090002610E065
:102E9000C6EBC60108F1080010F82100584507D11B
:102EA000C6EBC60108F1080000EB8100456802E0AE
:102EB000761C102EECDB00BF8098FDF744FD0DB9A9
:102EC0000020D3E77249286A884201D00020CDE76C
:102ED000704816220021D0F804339847044604B9FC
:102EE00017E02046A169884700B912E04FF48070CE
:102EF000E062402020630020A0620420E063C4F868
:102F000040D0D5F8400122462946036B98478146B8
:102F100000BF24B15F482146D0F810239047B9F193
:102F2000000F01D00120A1E700209FE72DE9F04F1D
:102F3000ADF5017D82460F4600250024D046A3460C
:102F400017B1B8F1000F04D100200DF5017DBDE8E7
:102F5000F08F6946384604F027FC6846FFF7BAFD53
:102F60009DF800B0FDF7EBFC8090002610E0C6EB6A
:102F7000C60108F1080010F82100584507D1C6EB3A
:102F8000C60108F1080000EB8100456802E0761CEC
:102F9000102EECDB00BF8098FDF7D5FC0DB90020AA
:102FA000D3E73B49286A884201D00020CDE7394861
:102FB00016220021D0F804339847044604B917E0DC
:102FC0002046A169884700B912E04FF48070E062A2
:102FD000400120630020A0620420E063C4F840D0D8
:102FE000D5F8400122462946036B9847814600BF29
:102FF00024B128482146D0F810239047B9F1000F9A
:1030000001D00120A1E700209FE72DE9F047074606
:103010000E460024B8463546A14615B1B8F1000F5A
:1030200002D10020BDE8F0871949286A884201D002
:103030000020F7E7174816220021D0F804339847FC
:10304000044604B917E02046A169884700B912E098
:103050004FF48070E062400020630020A0624FF4D3
:10306000AA70E0632564D5F8400122462946036B27
:103070009847814600BF24B106482146D0F8102366
:103080009047B9F1000F01D00120CBE70020C9E73C
:1030900055AA55AA281700202DE9FF4704460D46DA
:1030A00016461F46DDE90D9ADDF83080FE488DE8B2
:1030B000800733462A462146D0F884C0E04704B052
:1030C000BDE8F08710B50446F7482146D0F88820BF
:1030D000904710BD10B50446F348D0F8C010204604
:1030E000884710BD10B5F049D1F8BC00804710BD2D
:1030F00010B50446EC48D0F8C4102046884710BDEF
:1031000070B504460D46E8482946D0F8A020204670
:10311000904770BD70B50446E34845682146D0F835
:10312000D4202846904770BD70B504460D46DE4851
:103130002946D0F8D0202046904770BD10B50446EF
:10314000D9482146D0F8AC20904710BD2DE9FE4368
:1031500004460D4616461F46DDF82880D2488DE805
:10316000C0014168D1482B462246D0F83CC2E04716
:10317000BDE8FE8310B50446CC482146D0F8402275
:10318000904710BD70B5054600240026C8480A22A5
:103190000021D0F804339847044604B910E02046D3
:1031A000A169884730B9C2482146D0F8102390471A
:1031B000002405E0264615B13046316B884700BF34
:1031C000204670BD10B50446B9482146D0F81023FA
:1031D000904710BD10B504462046216B884710BDAE
:1031E00010B504462046616B884710BD10B5002419
:1031F000AF4809220021D0F80433984704460CB99F
:10320000002010BD2046A169884730B9A848214652
:10321000D0F8102390470020F3E72046F1E710B5DF
:103220000446A3482146D0F81023904710BD10B59E
:1032300004462046616B884710BD2DE9F0410546E4
:103240002C4600260027B04614B90020BDE8F081C6
:10325000206809280DD00A2806D011280FD126464B
:103260003046316A8847F1E727463846396A884749
:10327000ECE7A0464046D8F820108847E6E700BFB4
:1032800000BF0020E2E72DE9F041054688462C46C4
:103290000026002714B90020BDE8F0812068092825
:1032A0000BD00A2803D011280DD10020F4E72646C0
:1032B00041463046B26B9047EEE7274641463846D6
:1032C000BA6B9047E8E700BF00BF0020E4E7F0B525
:1032D00085B004460D461646002001210190CDE937
:1032E000020104900090714833462A462146D0F8E6
:1032F0003472B84705B0F0BD10B504466B4821469E
:10330000D0F83822904710BD30B50546039C002008
:1033100030BD7047F8B504460D4616461F46654851
:10332000009733462A462146D0F8E0C1E047F8BD71
:10333000F8B504460D4616461F465E4800973346CC
:103340002A462146D0F8E4C1E047F8BDF8B5044666
:103350000D4616461F465748009733462A462146D3
:10336000D0F8E8C1E047F8BD10B504465148214601
:10337000D0F8EC21904710BD10B504464D4800220E
:103380002146D0F8F031984710BD10B504464948A1
:103390002146D0F8F421904710BD70B504460D4683
:1033A00044482A462146D0F8FC31984770BD2DE9A3
:1033B000F04104460D4616463E4833462A4621460D
:1033C000D0F80072B847BDE8F08170B504460D46EC
:1033D00038482A462146D0F8F831984770BD10B5D4
:1033E000044634482146D0F80422904710BD70B5F9
:1033F00004460D462F482A462146D0F80832984701
:1034000070BD10B504462B482146D0F80C229047D9
:1034100010BD10B5044627482146D0F81022904729
:1034200010BD2DE9FF4704460D4616461F46DDE94F
:103430000D9ADDF830801F488DE8800733462A4614
:103440002146D0F814C2E04704B0BDE8F087F8B5D3
:1034500004460D4616461F461648009733462A4630
:103460002146D0F818C2E047F8BD10B5044611480F
:103470002146D0F81C22904710BD2DE9FF47044695
:103480000D4616461F46DDE90D9ADDF830800948E5
:103490008DE8800733462A462146D0F820C2E0470F
:1034A00004B0BDE8F0870000081500203C1A002099
:1034B000281700204410002010B504462848214653
:1034C000D0F82422904710BD70B5054625481B2230
:1034D0000021D0F80433984704460CB9002070BD91
:1034E0002046A169884708B90020F8E71DB12946A0
:1034F0002046A26B90472046F1E72DE9F0410446B3
:103500000E461746254615B90020BDE8F0813A461B
:1035100031462846EB6B9847F7E770B504460E46F0
:1035200025460DB9002070BD314628462A6C9047CB
:10353000F9E770B504460E4625460DB9002070BD6A
:1035400031462846AA6B9047F9E710B5044605486E
:103550002146D0F81023904710BD704770470000F7
:103560004410002028170020F0B504460A464FF406
:103570008070002301210025002604B102B9F0BDAE
:103580002DE017780F4207D05B1C4900B1F5807F12
:1035900001D10121521C22E01846012C01D1012643
:1035A0001FE001265B1C4900B1F5807F01D101219C
:1035B000521C00250CE017780F4201D000260AE0CB
:1035C0005B1C4900B1F5807F01D10121521C6D1CAB
:1035D000671EAF42EFD800BF06B102E000BFFF2B6D
:1035E000CFD900BF00BFCAE710B50B46012102EBDF
:1035F000D00200F0070002E04C06210E401E002819
:10360000FAD108E014780C4314704C06210E09B965
:103610000121521C5B1E002BF4D110BDF0B50346F6
:10362000002501200021002403EB8306A84F07EBAF
:10363000C60606F1080219E01668064205D0491CC4
:10364000400008B90120121D10E005E0641C491C6F
:10365000400008B90120121D1668064201D1FF2959
:10366000F4D9AC4200D92546002400BFFF29E3D994
:103670002E0303EB8307DFF858C20CEBC7077E600D
:10368000F0BD2DE9F04705460026B246B0460027BA
:103690000024A1462805000D00D115B93046BDE82B
:1036A000F087B5F5801F01D93046F8E700240BE01C
:1036B00004EB8400864901EBC0004068A84202D3B5
:1036C0004FF0010A02E0641C102CF1D300BFBAF1E4
:1036D000000F01D13046E2E74FEA153804EB8400D1
:1036E0007B4A02EBC00000F108014046FFF73CFFB7
:1036F0000746B7F5807F01D13046D0E704EB840060
:10370000734951F83060B1464FF4805000FB07997F
:103710004E4604EB840001EBC00000F10802414674
:103720003846FFF761FF2046FFF778FF3046B6E7DF
:103730002DE9F04F05460E464FF0000A0024002701
:10374000A046A346A1461EB115B12805000D01D023
:10375000BDE8F08F002412E004EB84005C4951F8CE
:103760003000A8420AD804EB840051F8300000F57C
:103770008010A84202D94FF0010A02E0641C102C0C
:10378000EAD300BFBAF1000F00D1E1E704EB8400F7
:103790004F4951F83000281A070B07F01F087F091E
:1037A0003005000D05D0B01BC0F30B0000F58050B4
:1037B00000E0304606464FEA163B4FF000091DE098
:1037C00004EB8400424901EBC000083050F82700A8
:1037D000012101FA08F1884304EB84013C4A02EB21
:1037E000C101083141F8270008F10108B8F1200FA4
:1037F00002D1A8F120087F1C09F10109D945DFD3C6
:103800002046FFF70BFF00BFA2E72DE9F041044679
:103810000D460027002614B93846BDE8F081E01CAB
:1038200020F00304012D02D0032D22D111E02948FC
:10383000016B8847064616F0040F02D016F0080FF9
:1038400001D13846E9E723482146C26C9047074634
:1038500010E02005000D05D0201BC0F30B0000F583
:10386000805000E0204604462046FFF70AFF074646
:1038700000E000BF00BF3846CFE72DE9F041044625
:103880000D4616460027012D02D0032D16D110E05B
:103890001048016B8847074617F0040F02D017F055
:1038A000080F01D1BDE8F0810A482146026D90471A
:1038B00005E031462046FFF73BFF00BF00BF00BFD9
:1038C00000BFEFE70348C068704702488068704750
:1038D00084120020F41500202DE9F04780464FF0B7
:1038E0000009002500240026B8F1000F00D135E0C2
:1038F0004446FD480F220021D0F80433984705467E
:1039000005B92BE02846A969884700B926E0F648A2
:103910000F220021D0F804339847064606B91DE06F
:103920003046B169884700B918E02566C4F8986147
:10393000EE48206200206065ED4860620020C4F817
:10394000C801002705E0002104F5E67040F82710C3
:103950007F1C082FF7DB4FF0010900BFB9F1000F02
:103960000BD125B1E0482946D0F81023904726B165
:10397000DD483146D0F8102390474846BDE8F0872F
:1039800070B50446002504B970BD25460020686264
:10399000D548296ED0F810239047D348D5F8981110
:1039A000D0F81023904700BFEEE72DE9F84F83468B
:1039B0000020009000250026002400278046814634
:1039C000BBF1000F02D10098BDE8F88F5D46C648F4
:1039D0000F220021D0F804339847064606B967E065
:1039E0003046B169884700B962E0BF480F22002124
:1039F000D0F804339847044604B959E02046A16939
:103A0000884700B954E0B8480F220021D0F80433A9
:103A10009847074607B94BE03846B969884700B967
:103A200046E0B1480F220021D0F804339847804681
:103A3000B8F1000F00D13BE04046D8F81810884795
:103A400000B935E0A8480F220021D0F80433984788
:103A50008146B9F1000F00D12AE04846D9F8181084
:103A6000884700B924E0AE60EF60C5F81080C5F863
:103A700014904FF0000A13E09B480F220021D0F869
:103A800004339847044604B912E02046A1698847E8
:103A900000B90DE005F1180040F82A400AF1010ACA
:103AA000BAF1110FE8D3002068600120009000BF38
:103AB000009808BB26B18C483146D0F810239047B7
:103AC00024B189482146D0F81023904727B1864871
:103AD0003946D0F810239047B8F1000F04D082483F
:103AE0004146D0F810239047B9F1000F04D07E482A
:103AF0004946D0F810239047009865E72DE9F84F24
:103B000083460D46174699460024A046A24600204B
:103B100000900026BBF1000F01D00A9800B97EE0AA
:103B2000022F02D0032F00D079E0D8466E48112230
:103B30000021D0F804339847044604B96FE02046CA
:103B4000A169884700B96AE015B94FF4006502E041
:103B5000802D00D2802501212846FFF756FE82469F
:103B6000BAF1000F00D15AE06068A065E765C4F8BB
:103B70006490C4F868900020E06620676067C4F82D
:103B800080000DB1284601E04FF4006044F8840F36
:103B90000AEB050060600A98A0600B98E0600020C6
:103BA00084F8100184F8110184F81201C4F81C0192
:103BB000C4F84001A4F1840406460D9870B100BF1A
:103BC00009E00D98805D00B907E00D98815D04F56E
:103BD000D2708155761C1F2EF3D300BF002104F54F
:103BE000D270815543492046FCF747FB022F05D18F
:103BF00021464046D8F87C20904707E0D8F80C00D2
:103C00004A462146436B984700B908E00022214606
:103C10000120D8F8743098470120009000BF009828
:103C200080B924B130482146D0F810239047BAF12A
:103C3000000F04D0002201215046FFF71EFE002095
:103C4000BDE8F88F2046FBE72DE9F04706460C4615
:103C500000250027A846A94606B10CB9BDE8F087A3
:103C600025463746E86D052800D0F7E7D7F81480D9
:103C700029464046D8F83820904700222946082097
:103C80007B6F9847D5F88890D5F88400A9EB000998
:103C9000002201214846FFF7F0FD13482946D0F8DD
:103CA0001023904700BFD9E7024600207047024624
:103CB000002070472DE9F04180460E460024002583
:103CC00016B93046BDE8F081FCF739FE07460A48D0
:103CD000406868BB08480021826F90470446ACB931
:103CE00040F2CE210AE00000281700206B440008B3
:103CF000AA5555AAE143000808150020FDA0FCF7CD
:103D0000A3FD3846FCF71FFE0020DBE7FE484460B9
:103D10000120E065206F0A302067FB482246002121
:103D2000436F042098473846FCF70DFE606DC9E7E5
:103D3000F54845686E65E86D07287DD2DFE800F03C
:103D4000835629070605040000BF00BF00BFEE48E8
:103D50000021826F904704464CB940F2ED21E5A066
:103D6000FCF772FD3846FCF7EEFD0020AAE7E648B6
:103D700044600120E065206F0A302067E248224657
:103D80002946436F062098473846FCF7DCFD606DF6
:103D900098E7DD48696E826F904704464CB940F25F
:103DA0000131D4A0FCF750FD3846FCF7CCFD0020D3
:103DB00088E7AC4209D1286F0A3028670120E865FE
:103DC0003846FCF7C0FD30467CE7206F0A3020679C
:103DD0000120E065CC48446022462946436F062016
:103DE00098473846FCF7AFFD606D6BE7C648696ED3
:103DF000826F904704466CB9286F0A302867C24822
:103E00002A460021436F042098473846FCF79BFD63
:103E1000304657E70220E865BB482946C26F904705
:103E2000206F0A3020670120E065B74844602246D1
:103E30000021436F042000E005E098473846FCF776
:103E400082FD606D3EE74FF44D71AAA0FCF7FCFCCB
:103E50003846FCF778FD002034E72DE9F0410446B0
:103E60000D4600260027B04614B90020BDE8F081B9
:103E70002646776EFCF763FD804675664046FCF784
:103E800062FD3846F2E7014609B900207047486EE6
:103E9000FCE70246002070472DE9F04706460F4632
:103EA0000024A0460025A1460EB10A2F02D2002010
:103EB000BDE8F0873446D4F80480B8F1000F06D18D
:103EC0004FF460718BA0FCF7BFFC0020F0E70A20E4
:103ED000B7FBF0F58D48D0F804020544FCF72FFD40
:103EE0008146E06D10B1E06DA84200D9E56504207F
:103EF000C8F85C00C5F1FF3520692A464146436B8E
:103F000098474846FCF71FFD0020D4F894108847D6
:103F10000120CDE70246002070470246002070478E
:103F200001460020704701460020774A5268D2F8C7
:103F3000A001754A5268C2F8A011704772484068E3
:103F4000D0F8A0017047014619B96F484068806DEC
:103F50007047886DFCE7014619B96B484068C06D31
:103F60007047C86DFCE702460020704701460022FA
:103F700009B9002070470A4692F89601202801D11D
:103F80000120F7E70020F5E70146002209B90020EB
:103F900070470A4692F8960108B90120F8E7002018
:103FA000F6E72DE9F04706460D4600240027A04617
:103FB000A14605B951E016B95348446800E03446BB
:103FC000FCF7BDFC81462046FFF7D0FF18B14846FC
:103FD000FCF7B9FC41E0298894F8952104F194009C
:103FE00020F83210698894F8952100EBC2004180D6
:103FF00094F89521696804F1940000EBC2004160D7
:1040000094F89501401C84F8950194F895012028B6
:1040100002D1002084F8950194F89601401C84F8A0
:104020009601D4F898010021C26B904707462FB142
:104030000220F86534483946C26F90474846FCF77D
:1040400082FC324890F80C0220B92F48D0F8941026
:10405000002088474FF0010800BF4046BDE8F087C8
:104060002DE9F04106460D460024002715B9002031
:10407000BDE8F08116B92448446800E0344600BF2A
:10408000FCF75DFC07462046FFF77EFF80B1062067
:10409000E065D4F8980100222146436B98473846E2
:1040A000FCF751FC1848D0F8941000208847E7E747
:1040B00094F8941104F1940030F83100288094F8B9
:1040C000941104F1940000EBC1004088688094F8DA
:1040D000941104F1940000EBC1004068686094F80A
:1040E0009401401C84F8940194F89401202811D183
:1040F00000200DE048584F535C6B65726E656C5C38
:104100004B544D47522E4300081500203C1A002006
:1041100084F8940194F89601401E84F8960138467C
:10412000FCF711FC0120A3E72DE9F04106460D46FE
:104130000024002715B90020BDE8F08116B94448D5
:10414000446800E03446FCF7FAFB07462046FFF7D8
:104150001BFF20B13846FCF7F6FB0020ECE794F893
:10416000941104F1940030F83100288094F89411EF
:1041700004F1940000EBC1004088688094F8941129
:1041800004F1940000EBC1004068686094F8940169
:10419000401C84F8940194F89401202802D1002056
:1041A00084F8940194F89601401E84F896013846EC
:1041B000FCF7C9FB0120BFE72DE9F04104460D469D
:1041C00000270026B04614B90020BDE8F08127463C
:1041D000FCF7B5FB80460DB9786800E02846064636
:1041E000F06D012804D04046FCF7ADFB0020ECE761
:1041F0000620F0654046FCF7A6FB0120E5E72DE927
:10420000F04104460D4600270026B0460CB9BDE833
:10421000F0812746FCF793FB80460DB9786800E0F3
:1042200028460646F06D062803D04046FCF78BFB77
:10423000EDE70120F0654046FCF785FB00BFE6E7AF
:1042400070B504460D46618820886268A84770BD35
:10425000081500202DE9F04705460C460027A94621
:10426000B84600260DB1102C02D90020BDE8F08719
:10427000264610E0C6F11000011909F1180050F8A7
:10428000218000214046D8F83C20904707460FB1D6
:104290003846EBE7761C112EECD33846E6E770B5CE
:1042A00005460C46002605B124B9492184A0FCF737
:1042B000CBFA70BD606E102802D8E06D022804D0E1
:1042C00050217FA0FCF7C0FAF3E705F11800616EFA
:1042D00050F82160002221463046736B984700BF9A
:1042E000E7E72DE9F04105460C460026FCF727FBE1
:1042F0000746012D06D0022D08D0042D0AD0082D26
:1043000010D10BE07448066E046610E07248466EE9
:1043100044660CE07048866E846608E06E48C66E9F
:10432000C46604E07B2166A0FCF78EFA00BF00BFE4
:104330003846FCF708FB3046BDE8F08170B505460D
:104340000C46164615F0010F0FD024B98E215CA043
:10435000FCF77AFA70BD6048006E00B9FAE75E4873
:1043600004F5CE71026E2046904715F0020F0FD073
:1043700024B99C2152A0FCF767FAEBE75648406E3F
:1043800000B9E7E7544804F5CE71426E20469047E5
:1043900015F0040F0FD026B9AA2149A0FCF754FA52
:1043A000D8E74D48806E00B9D4E74B4806F5CE718A
:1043B000826E3046904715F0080F0FD024B9B8210F
:1043C0003FA0FCF741FAC5E74348C06E00B9C1E71A
:1043D000414804F5CE71C26E2046904700BFB9E750
:1043E0002DE9F0470446002600250027A846A946E7
:1043F0002646D6E9231088478046FCF7A0FA814676
:10440000C6F86C800520F065334948694969002287
:104410004B6B31469847376E00213846FA6B904710
:10442000054616E00220E865D5F8C4016FF30F00D9
:10443000C5F8C401D5F8C40140F00100C5F8C401B5
:1044400025482946C26F904700213846FA6B9047AD
:104450000546002DE6D14846FCF775FA1E48D0F80F
:10446000941000208847BDE8F0872DE9F04104460C
:10447000002500260027A84614B90020BDE8F081D9
:104480002546FCF75CFA8046E86D052804D14046D5
:10449000FCF759FA0120F1E72F6E0F484668062015
:1044A000F0650022314638467B6B98474046FCF762
:1044B0004AFA0948D0F89410002088470020DDE728
:1044C00048584F535C6B65726E656C5C4B544D473E
:1044D00052322E4300000000081500200246002042
:1044E000704770B50346144600200025002225467B
:1044F0009D601E6846F002061E601E6846F00406B7
:104500001E6059600A465A630126166000269660AE
:10451000D660A5F1100656605668DE6001261E6161
:10452000012070BD2DE9F05F054688464FF0000977
:10453000002400270026A246A34615B1B8F1000FBB
:1045400000D18BE0B8F1100F01D24FF0100808F144
:10455000200AFCF7F4F983466C6B78E0606840450C
:1045600001D2A46873E06068504530D8E06850B963
:10457000A06810B90020686311E00020A168C8603D
:10458000A06868630BE0A06818B90020E168886043
:1045900005E0D4E90210C860D4E90201886026462B
:1045A000306820F001003060306840F00200306078
:1045B000F548B0604FEA3020F06006F11009E86875
:1045C0007168401AE8602869401E286141E004F1E2
:1045D000100000EB0807E068F860A068B860606849
:1045E0001038A0EB0800786000203860386840F090
:1045F00001003860E06838B9A06808B96F630CE062
:104600006F63A068C76008E0A06810B9E0688760C1
:1046100003E0E0688760A068C7602646306820F045
:1046200001003060306840F002003060C6F804805D
:10463000D548B0604FEA3020F060E868A0EB080091
:10464000E860E8681038E86006F1100901E0002C25
:1046500084D100BF5846FCF776F900BFFCF76FF92C
:104660008346A869401CA861A86910B96869401C04
:104670006861B9F1000F07D0286A401C2862286AD7
:1046800010B9E869401CE8615846FCF75CF9286AF3
:10469000A969884203D9E221BCA0FCF7D5F84846B5
:1046A000BDE8F09F70B50246002300240846C568A7
:1046B0003DB1C5686D681035C6683544854200D186
:1046C0000123856835B14568103505448668B542D3
:1046D00000D10124ABB1D0E90256B560856815B1AF
:1046E000D0E90265F560C5686E68456810353544E7
:1046F000C668756015696D1E1561D5681035D56081
:10470000C06894B1D0E901656D68103535444560E5
:10471000D5681035D5608568AD68856085680DB150
:104720008568E86015696D1E156170BD2DE9F0475B
:104730000546884600240027002615B1B8F1000F71
:1047400001D1BDE8F087A8F11004206820F0020034
:104750002060206840F001002060FCF7F0F88146FE
:10476000686B70B96C630020A060E060E868616805
:104770000844E8602869401C28614846FCF7E3F8D3
:10478000DFE76F6B6E6B04E0A64200D903E03746AB
:10479000B668002EF8D100BF96B9BC60E760002073
:1047A000A060E86861680844E8602869401C2861E6
:1047B00021462846FFF776FF4846FCF7C4F8C0E7D5
:1047C000686BB04213D1A6600020E060F4606C63B7
:1047D000E86861680844E8602869401C286121464F
:1047E0002846FFF75FFF4846FCF7ADF8A9E7B86831
:1047F000A060E760A068C460E0688460E868616801
:104800000844E8602869401C286121462846FFF7D3
:1048100049FF4846FCF797F800BF92E770B5044699
:104820000E46002504B106B970BDA6F11005287822
:1048300010F0020F00D1F7E75349A868884204D16D
:104840004FEA3121E868884200D0EDE73146204642
:10485000FFF76CFFA06A401CA062A06A10B9606AF2
:10486000401C606200BFDFE72DE9F04106460C46C0
:1048700017460025306810F0080F01D1BDE8F0811F
:1048800006B104B9FAE7202F00D2F7E72546A7F1D1
:1048900010006860286820F002002860286840F056
:1048A000010028600020E860A86004F11001304693
:1048B000FFF73CFFB0683844B06000BFDEE710B5DA
:1048C00003460020002201B910BDA1F110021068BA
:1048D00000BFF9E730B504460020002301B930BD20
:1048E000A1F110031A60012000BFF8E770470146EC
:1048F000086870470146002001B916E0294A0A639A
:1049000000224A634A600A600A6842F008020A60AC
:104910000022CA608A600A614A618A61CA610A62C9
:104920004A628A62CA62012000BF704770B50446BD
:1049300001250CB9002070BD2046E16B884708B9FD
:104940000020F8E71848006808B90020F3E7164887
:10495000426801682046636C984708B90020EAE77E
:104960000AE0114800EBC50042680F4850F83510C6
:104970002046FFF779FF6D1C0B4850F835000028E2
:10498000EFD10120D7E7000055AA55AA48584F5348
:104990005C6B65726E656C5C4D454D5F46424C2E9E
:1049A00043000000EF480008A41C002010B5044696
:1049B0000CB9002010BDA047FCE770B5A0B00546BB
:1049C0000024002615B9002020B070BD17E0DF4894
:1049D00050F8340000B913E0DC4901EBC401486829
:1049E000FFF7E4FF06464EB9D84850F83420D8A166
:1049F000684602F0A4FD684602F0CFFE641CE6E7BC
:104A000000BF0120E0E7014609B900207047E048F7
:104A100001600120FAE7FEB504460E46002700E0DB
:104A2000641C20782028FBD0207800B969E000259C
:104A30000AE0207800B964E02078202800D105E061
:104A400014F8010B70556D1C202DF2DB00BF002007
:104A5000705503E0207800B953E0641C20782028CA
:104A6000F8D100E0641C20782028FBD0207800B921
:104A700047E000250BE0207800B942E020782028AC
:104A800000D106E014F8010B0DF805006D1C082D8F
:104A9000F1DB00BF00200DF8050006F12401684697
:104AA00002F0A9FE00B92CE003E0207800B928E06C
:104AB000641C20782028F8D100E0641C207820288D
:104AC000FBD0207800B91CE000250BE0207800B96D
:104AD00017E02078202800D106E014F8010B0DF82B
:104AE00005006D1C082DF1DB00BF00200DF805004E
:104AF00006F12801684602F07EFE00B901E00127B8
:104B000000BF3846FEBD2DE9F043B1B00446002594
:104B1000666A0027002000908046D4F824909DA16A
:104B200021A802F074FF214621A802F07AFF21A8F3
:104B300002F027FF00231A46012121A8FEF7EAFB15
:104B4000054645B921AA96A101A802F0F8FC01A8E2
:104B500002F023FE3FE000BF6B4632464FF40051A7
:104B60002846FEF7E5FB40B921AA96A101A802F06C
:104B7000E6FC01A802F011FE2DE006F500560098B3
:104B8000B0F5005FE8D094F8280010F0010F17D0BE
:104B9000C8478046B8F1000F09D021AA92A101A808
:104BA000636A02F0CCFC01A802F0F7FD08E021AA3C
:104BB00098A101A8636A02F0C2FC01A802F0EDFD11
:104BC00021AA9EA101A8636A02F0B9FC01A802F023
:104BD000E4FD012700BF15B12846FEF7C5FB3846A6
:104BE00031B0BDE8F08310B503460020106003E04B
:104BF0005B1C1068401C106018782028F8D01878CA
:104C000008B9002010BD002410E013F8010B01F8D2
:104C1000010B1068401C1060187828B118780D2816
:104C200002D018780A2800D102E0641CFF2CECDDC9
:104C300000BF0020087003E01068401C10605B1C7F
:104C400018780D28F8D018780A28F5D00120D9E76F
:104C5000014608785C2801D1002070470120FCE75C
:104C60002DE9F043ADB00746002400250026A046FC
:104C700000200C908146009007B950E045A10DA896
:104C800002F0C5FE39460DA802F0CBFE00231A46FD
:104C900001210DA8FEF73EFB8046B8F1000F03D1BD
:104CA0006FA002F07AFD3AE0012141F20100FEF727
:104CB000ACFD0446012140F20110FEF7A6FD0646B8
:104CC00004B11EB9704802F068FD28E025460CAB1F
:104CD0002A464FF480514046FEF72AFB18B96BA0D4
:104CE00002F05BFD1BE000200C9968540DE030469B
:104CF000FFF7AEFF38B101A93046FFF78CFE10B1C7
:104D000001A8FFF700FF009805446A46314628468F
:104D1000FFF769FF0028EAD14FF0010900BFB8F1A1
:104D2000000F02D04046FEF71FFB24B100220121F4
:104D30002046FEF7A2FD26B1002201213046FEF7F3
:104D40009CFD48462DB0BDE8F08300007C12002099
:104D50002020546865206D6F64756C6520776974D8
:104D60006820737461727420616464726573732067
:104D70003078253038582063616E206E6F74206261
:104D80006520696E697469616C697A65642E0000DA
:104D900054160020433A5C5054484F5553455C002C
:104DA00043616E206E6F74206F70656E207468654D
:104DB000206D6F64756C65206E616D656420257370
:104DC0002E00000043616E206E6F74207265616476
:104DD0002066726F6D206D6F64756C652066696CFE
:104DE000652025732E000000496E697469616C6945
:104DF0007A65206D6F64756C652025732061742061
:104E000030782558207375636365737366756C2EEF
:104E100000000000496E697469616C697A65206DF3
:104E20006F64756C65202573206174203078255877
:104E3000206661696C65642E000000004C6F61643F
:104E4000206D6F64756C6520257320617420307847
:104E50002558207375636365737366756C2E000047
:104E600043616E206E6F74206F70656E207468658C
:104E7000206D6F64756C6520636F6E66696775720F
:104E8000652066696C652E00F06F020843616E2034
:104E90006E6F742072656164204D4F444346472E07
:104EA000494E492066696C652E0000002DE9F05FCF
:104EB00005468946164600240027A246A0460DB1A5
:104EC000402E00D39FE012E0402F00D110E0A24816
:104ED00000EB0710006800B90AE09F4800EB0710DC
:104EE0000068B04202D14FF0010A01E07F1CEBE7FD
:104EF00000BFBAF1000F00D185E0974800EB071022
:104F0000D0F80480B8F1000F00D17CE001214046C8
:104F1000FEF77BFC044604B975E0FBF710FD834601
:104F2000286860602868401C2860C4F808802660F3
:104F3000894800EB07108068A061874800EB0710E4
:104F4000C068E061C4F8149006EB4601281D00EB30
:104F50008100806838BB00202061E06006EB4601DC
:104F6000281D00EB8100846006EB4601281D00EB44
:104F7000810040686168884206D206EB4602281D1F
:104F800000EB82006168416006EB4601281D50F885
:104F90002100401C06EB4602291D41F8220058461C
:104FA000FBF7D1FC2FE006EB4601281D00EB81004A
:104FB000806820612069C4600020E06006EB460143
:104FC000281D00EB8100846006EB4601281D00EBE4
:104FD000810040686168884206D206EB4602281DBF
:104FE00000EB82006168416006EB4601281D50F825
:104FF0002100401C06EB4602291D41F822005846BC
:10500000FBF7A1FC00BF2046BDE8F09FF0B50246CB
:10501000002000230024002502B920E0002318E02E
:1050200003EB4307161D06EB870466688E4200D229
:105030000EE0A06805E046688E4201D1012502E03D
:1050400000690028F7D100BF012D00D103E000BFA7
:105050005B1C402BE4D300BF05B9002000BFF0BDAE
:1050600010B5024600200AB1402900D306E001EB4A
:105070004104131D03EB8403986800BF10BD2DE9A4
:10508000F04707460C4600250026A84607B104B99C
:105090005FE02068402800D35BE0FBF750FC8146CE
:1050A000206800EB4001381D00EB8105A86818B9A5
:1050B0004846FBF748FC4CE0D4F80480E06880B92F
:1050C000206928B90020A8602868401E28601AE0DE
:1050D00000202169C8602069A8602868401E2860F7
:1050E00011E0206930B90020E16808612868401E9D
:1050F000286008E0D4E903100861D4E90301C8601E
:105100002868401E28604846FBF71DFC2046E169E0
:10511000884701212046A268FEF7AFFBFBF70FFC92
:105120008146686840450ED8AE680EB1706800E0F0
:105130000020804605E07068404501D9D6F804801B
:105140003669002EF7D1C5F804804846FBF7FBFB13
:1051500000BFBDE8F0870000681600202DE9F04789
:10516000074688469146002400253E46A24617B1D0
:10517000B8F1000F02D10020BDE8F0870121102016
:10518000FEF743FB04460CB90020F5E7C4F80080A5
:10519000C4F80490FBF7D3FB8246306B401C3063AD
:1051A000F56A00E0ED686868484503D206F1200022
:1051B0008542F7D1A868A060E560A868C460AC60CB
:1051C0005046FBF7C0FB0120D6E72DE9F04107462A
:1051D0000E463D46002407B116B90020BDE8F08117
:1051E000FBF7ADFB8046AC6A00E0A4682068B042E3
:1051F00003D005F120008442F7D12068B04212D1DB
:10520000286B401E2863D4E90210C860D4E902016B
:1052100088604046FBF797FB002201212046FEF7FD
:105220002CFB0120DAE74046FBF78DFB0020D5E799
:105230002DE9F04706460F4635460024A04616B92C
:105240000020BDE8F087FBF77AFB8146AC6A05F1E8
:105250002000844204D14846FBF775FB0020F0E7AC
:10526000286B401E2863D4E90210C860D4E902010B
:1052700088604846FBF767FBD4F800800FB1606890
:105280003860002201212046FEF7F7FA4046D8E7B1
:105290000146002209B9002070470A46002010622A
:1052A0000023536202F120009062D062002010635C
:1052B00010485063104890631048D0630120EBE71A
:1052C0002DE9F04104460025002600270CB9BDE871
:1052D000F0812746BD6A06E02E46AD680022012116
:1052E0003046FEF7CAFA07F120008542F4D100BF2C
:1052F000EDE700005D510008CB5100083152000875
:1053000070B505462C462CB92D21FEA0FBF79CFA62
:10531000002070BDFBF713FB0646A068D0F8C4015F
:105320000004000C06D0012802D004281ED100E0A1
:1053300000BF20E0A068D0F8C4016FF30F00A1689F
:10534000C1F8C401A068D0F8C40140F00200A1680F
:10535000C1F8C401D4E90101826B90470220A16821
:10536000C865EE48A168C26F904704E04521E5A0FA
:10537000FBF76AFA00BF00BF3046FBF7E4FA0020F3
:10538000C7E72DE9F04186B006460F461446984619
:1053900026B11FB114B1B8F1000F07D15B21D9A01C
:1053A000FBF752FA002006B0BDE8F08105940396A1
:1053B0000497012003A9DA4ACDE900210290D948D7
:1053C00043464FF400622146D0F83CC2E047054610
:1053D0000DB90020E7E7D148D0F8941000208847A5
:1053E000D4F8C40180B2012804D0022810D00428C7
:1053F00010D106E0CB482946D0F840229047012042
:10540000D1E7C8482946D0F8402290470420CAE78F
:105410000220C8E700BF00BF8A21BAA0FBF714FA38
:105420000020C0E72DE9F04106463546002400275C
:1054300015B90020BDE8F081FBF781FA0746A86A9C
:10544000012804D13846FBF77EFA0120F2E7B34881
:105450004468D4F8C4016FF30F00C4F8C401D4F851
:10546000C401C4F8C4010620E065E86A00222146B0
:10547000436B98473846FBF766FAA848D0F8941073
:10548000002088470120D5E72DE9F04707460E4662
:105490003C46002517B90020BDE8F0870A20B6FB7E
:1054A000F0F018B10A20B6FBF0F000E001208046D1
:1054B0009C48D0F804028044FBF741FA8246A06A77
:1054C000012804D15046FBF73EFA0120E4E74EB92B
:1054D0005046FBF738FA9148D0F8941000208847DE
:1054E0000220D9E78D48456843E08E48D0F8040291
:1054F000404504D35046FBF726FA0220CCE7894802
:10550000D0F80402A8EB000000EB80004FEA40094D
:105510000620E865D5F8C4016FF30F00C5F8C40193
:10552000D5F8C401C5F8C401E06A00222946436BDE
:1055300098475046FBF707FA4B462A462046E16A51
:10554000FFF71FFF012804D0022806D0042808D145
:1055500005E0FBF7F4F982460AE002209CE704200C
:105560009AE74FF4DA7167A0FBF76EF9002093E732
:1055700000BFA06A0128B8D15046FBF7E4F901202A
:105580008AE72DE9F041044625460026002715B993
:105590003046BDE8F081FBF7D2F90746AE6A02203B
:1055A000A8623846FBF7CFF93046F2E72DE9F04123
:1055B0000446022700260025A84614B93846BDE84F
:1055C000F0812646FBF7BBF98046B76A0120B0623E
:1055D000F06A0021C26B9047054616E00220E8659C
:1055E000D5F8C4016FF30F00C5F8C401D5F8C401A4
:1055F00040F00100C5F8C40148482946C26F9047F1
:10560000F06A0021C26B90470546002DE6D1404666
:10561000FBF799F9434890F80C0220B93F48D0F8BD
:105620009410002088473846C9E72DE9F041064626
:1056300000270024002506B91EE034463A480F2210
:105640000021D0F804339847054605B914E02846F0
:10565000A9698847074607B90EE0E5620220A06203
:1056600032482063324860633248A0633248206287
:1056700032486062012700BF2FB925B12A48294668
:10568000D0F8102390473846BDE8F0812DE9F0416D
:1056900004460025002600272CB9DB2119A0FBF7C2
:1056A000D3F8BDE8F0812546FBF749F98046EE6A5C
:1056B0004046FBF748F9002068621B483146D0F8A5
:1056C0001023904700BFECE72DE9F0410646002586
:1056D00000240027A04616B90020BDE8F08134461A
:1056E000FBF72DF98046E06A10B1E06A401EE062E7
:1056F000E06A28BBA76A0120A0624046FBF723F9B5
:105700000020EAE748584F535C6B65726E656C5C2D
:1057100053594E4F424A2E43000000000815002006
:10572000015300083C1A002028170020AD5500083E
:10573000835500088954000825540008AA5555AA25
:10574000206B0021C26B904705460220E865D5F822
:10575000C4016FF30F00C5F8C401D5F8C40140F0CF
:105760000100C5F8C401FB482946C26F9047404676
:10577000FBF7E9F8F748D0F894100020884738463E
:10578000ABE72DE9F041064600253446002714B961
:105790000020BDE8F081FBF7D2F80746A06A012897
:1057A00009D10220A062E06A401CE0623846FBF7A3
:1057B000CAF80120EDE7E7484568D5F8C4016FF362
:1057C0000F00C5F8C401D5F8C401C5F8C40106200E
:1057D000E865E06A401CE062206B00222946436BCA
:1057E00098473846FBF7AFF8DA48D0F89410002015
:1057F00088470120CDE72DE9F04106460F463446A3
:10580000002514B90020BDE8F081FBF798F8804628
:10581000A06A012809D10220A062E06A401CE0626F
:105820004046FBF790F80120EDE74FB94046FBF703
:105830008AF8C848D0F89410002088470220E2E790
:10584000C4484568D5F8C4016FF30F00C5F8C4011A
:10585000D5F8C401C5F8C4010620E865206B002214
:105860002946436B98474046FBF76DF83B462A466E
:105870002046216BFFF785FDC5E72DE9F04106467F
:1058800034460025002714B93846BDE8F081B248F7
:105890000F220021D0F80433984705460DB9384649
:1058A000F3E72846A969884700B90EE00120A06205
:1058B0002563AA4820620020E062A9486063A948E5
:1058C000A063A9486062012700BF2FB925B1A24893
:1058D0002946D0F8102390473846D6E72DE9F04105
:1058E0000546002600243DB940F28921AFF2EC10B4
:1058F000FAF7AAFFBDE8F0812E6BFBF720F8074608
:1059000000213046F26B9047044616E00220E06525
:10591000D4F8C4016FF30F00C4F8C401D4F8C40173
:1059200040F00400C4F8C4018A482146C26F904781
:1059300000213046F26B90470446002CE6D13846F1
:10594000FBF701F80020686283483146D0F8102345
:10595000904700BFCEE7014609B9002070470868AC
:105960000A2807D1804A486A904201D00020F5E712
:105970000120F3E70868092807D17B4A486A90426A
:1059800001D00020EAE70120E8E70868112807D1E4
:10599000754A486A904201D00020DFE70120DDE728
:1059A0000020DBE7014608680A2805D1886A01283B
:1059B00000D170470020FCE70868092805D1886AF3
:1059C000012800D1F5E70020F3E70868112806D187
:1059D000C86D052801D10120EBE70020E9E7002090
:1059E000E7E770B505460E46002407E055F82400A9
:1059F000FFF7D8FF08B9002070BD641CB442F5DB86
:105A00000120F9E770B504460E46002520680928F4
:105A10000ED00A2802D0112821D116E0E56A002212
:105A2000314628466B6B984708B9002070BD1DE0D1
:105A3000256B0022314628466B6B984708B9002039
:105A4000F4E7E06A401CE06210E0256E0022314677
:105A500028466B6B984708B90020E7E706E040F25C
:105A60002331AFF26030FAF7EFFE00BF00BF012034
:105A7000DCE72DE9F04105460E46174605B116B99B
:105A80000020BDE8F08100240DE055F82400FFF768
:105A900089FF38B955F824003946FFF7B3FF08B934
:105AA0000020EEE7641CB442EFDB0120E9E72DE9BA
:105AB000F04105460E4617460DB106B147B940F212
:105AC0004631AFF2C030FAF7BFFE0020BDE8F081EA
:105AD000002456E055F824000068092813D00A284D
